{
  "contractName": "Marketplace",
  "abi": [
    {
      "constant": true,
      "inputs": [],
      "name": "goodsCount",
      "outputs": [
        {
          "name": "",
          "type": "uint256"
        }
      ],
      "payable": false,
      "stateMutability": "view",
      "type": "function"
    },
    {
      "constant": false,
      "inputs": [],
      "name": "unpause",
      "outputs": [],
      "payable": false,
      "stateMutability": "nonpayable",
      "type": "function"
    },
    {
      "constant": true,
      "inputs": [],
      "name": "getOwnerBalance",
      "outputs": [
        {
          "name": "",
          "type": "uint256"
        }
      ],
      "payable": false,
      "stateMutability": "view",
      "type": "function"
    },
    {
      "constant": true,
      "inputs": [],
      "name": "paused",
      "outputs": [
        {
          "name": "",
          "type": "bool"
        }
      ],
      "payable": false,
      "stateMutability": "view",
      "type": "function"
    },
    {
      "constant": false,
      "inputs": [],
      "name": "destroy",
      "outputs": [],
      "payable": false,
      "stateMutability": "nonpayable",
      "type": "function"
    },
    {
      "constant": false,
      "inputs": [],
      "name": "pause",
      "outputs": [],
      "payable": false,
      "stateMutability": "nonpayable",
      "type": "function"
    },
    {
      "constant": true,
      "inputs": [],
      "name": "owner",
      "outputs": [
        {
          "name": "",
          "type": "address"
        }
      ],
      "payable": false,
      "stateMutability": "view",
      "type": "function"
    },
    {
      "constant": false,
      "inputs": [
        {
          "name": "_newOwner",
          "type": "address"
        }
      ],
      "name": "transferOwnership",
      "outputs": [],
      "payable": false,
      "stateMutability": "nonpayable",
      "type": "function"
    },
    {
      "constant": false,
      "inputs": [
        {
          "name": "_recipient",
          "type": "address"
        }
      ],
      "name": "destroyAndSend",
      "outputs": [],
      "payable": false,
      "stateMutability": "nonpayable",
      "type": "function"
    },
    {
      "inputs": [],
      "payable": false,
      "stateMutability": "nonpayable",
      "type": "constructor"
    },
    {
      "anonymous": false,
      "inputs": [
        {
          "indexed": false,
          "name": "id",
          "type": "uint256"
        },
        {
          "indexed": false,
          "name": "price",
          "type": "uint256"
        }
      ],
      "name": "LogForSale",
      "type": "event"
    },
    {
      "anonymous": false,
      "inputs": [
        {
          "indexed": false,
          "name": "id",
          "type": "uint256"
        },
        {
          "indexed": false,
          "name": "price",
          "type": "uint256"
        },
        {
          "indexed": false,
          "name": "buyer",
          "type": "address"
        }
      ],
      "name": "LogSold",
      "type": "event"
    },
    {
      "anonymous": false,
      "inputs": [
        {
          "indexed": false,
          "name": "id",
          "type": "uint256"
        },
        {
          "indexed": false,
          "name": "price",
          "type": "uint256"
        },
        {
          "indexed": false,
          "name": "seller",
          "type": "address"
        }
      ],
      "name": "LogShipped",
      "type": "event"
    },
    {
      "anonymous": false,
      "inputs": [
        {
          "indexed": false,
          "name": "id",
          "type": "uint256"
        },
        {
          "indexed": false,
          "name": "price",
          "type": "uint256"
        },
        {
          "indexed": false,
          "name": "buyer",
          "type": "address"
        }
      ],
      "name": "LogReceived",
      "type": "event"
    },
    {
      "anonymous": false,
      "inputs": [
        {
          "indexed": false,
          "name": "id",
          "type": "uint256"
        },
        {
          "indexed": false,
          "name": "name",
          "type": "string"
        },
        {
          "indexed": false,
          "name": "price",
          "type": "uint256"
        },
        {
          "indexed": false,
          "name": "ipfspic",
          "type": "string"
        },
        {
          "indexed": false,
          "name": "status",
          "type": "uint256"
        },
        {
          "indexed": false,
          "name": "seller",
          "type": "address"
        },
        {
          "indexed": false,
          "name": "buyer",
          "type": "address"
        }
      ],
      "name": "LogFetch",
      "type": "event"
    },
    {
      "anonymous": false,
      "inputs": [],
      "name": "Pause",
      "type": "event"
    },
    {
      "anonymous": false,
      "inputs": [],
      "name": "Unpause",
      "type": "event"
    },
    {
      "anonymous": false,
      "inputs": [
        {
          "indexed": true,
          "name": "prevOwner",
          "type": "address"
        },
        {
          "indexed": true,
          "name": "newOwner",
          "type": "address"
        }
      ],
      "name": "OwnershipTransferred",
      "type": "event"
    },
    {
      "constant": false,
      "inputs": [
        {
          "name": "_name",
          "type": "string"
        },
        {
          "name": "_price",
          "type": "uint256"
        },
        {
          "name": "_ipfspic",
          "type": "string"
        }
      ],
      "name": "addGoods",
      "outputs": [
        {
          "name": "",
          "type": "uint256"
        }
      ],
      "payable": false,
      "stateMutability": "nonpayable",
      "type": "function"
    },
    {
      "constant": false,
      "inputs": [
        {
          "name": "id",
          "type": "uint256"
        }
      ],
      "name": "buyGoods",
      "outputs": [],
      "payable": true,
      "stateMutability": "payable",
      "type": "function"
    },
    {
      "constant": false,
      "inputs": [
        {
          "name": "id",
          "type": "uint256"
        }
      ],
      "name": "shipGoods",
      "outputs": [],
      "payable": false,
      "stateMutability": "nonpayable",
      "type": "function"
    },
    {
      "constant": false,
      "inputs": [
        {
          "name": "id",
          "type": "uint256"
        }
      ],
      "name": "receiveGoods",
      "outputs": [],
      "payable": false,
      "stateMutability": "nonpayable",
      "type": "function"
    },
    {
      "constant": true,
      "inputs": [
        {
          "name": "_id",
          "type": "uint256"
        }
      ],
      "name": "fetchGoods",
      "outputs": [
        {
          "name": "id",
          "type": "uint256"
        },
        {
          "name": "name",
          "type": "string"
        },
        {
          "name": "price",
          "type": "uint256"
        },
        {
          "name": "ipfspic",
          "type": "string"
        },
        {
          "name": "state",
          "type": "uint256"
        },
        {
          "name": "seller",
          "type": "address"
        },
        {
          "name": "buyer",
          "type": "address"
        }
      ],
      "payable": false,
      "stateMutability": "view",
      "type": "function"
    },
    {
      "constant": true,
      "inputs": [],
      "name": "checkBalance",
      "outputs": [
        {
          "name": "",
          "type": "uint256"
        }
      ],
      "payable": false,
      "stateMutability": "view",
      "type": "function"
    },
    {
      "constant": true,
      "inputs": [],
      "name": "getAddress",
      "outputs": [
        {
          "name": "",
          "type": "address"
        }
      ],
      "payable": false,
      "stateMutability": "view",
      "type": "function"
    }
  ],
  "bytecode": "0x608060405260008060146101000a81548160ff02191690831515021790555034801561002a57600080fd5b50336000806101000a81548173ffffffffffffffffffffffffffffffffffffffff021916908373ffffffffffffffffffffffffffffffffffffffff16021790555033600160006101000a81548173ffffffffffffffffffffffffffffffffffffffff021916908373ffffffffffffffffffffffffffffffffffffffff1602179055506000600281905550611a16806100c36000396000f3006080604052600436106100e5576000357c0100000000000000000000000000000000000000000000000000000000900463ffffffff168062b24deb146100ea5780631417ff7e146101b757806338cc4831146101e25780633f4ba83a14610239578063590791f2146102505780635c975abb1461027b57806383197ef0146102aa5780638456cb59146102c15780638da5cb5b146102d85780638f4babfb1461032f578063a30f08a81461034f578063bce880ff1461037c578063c71daccb146103a9578063cb6e57e6146103d4578063f2fde38b14610561578063f5074f41146105a4575b600080fd5b3480156100f657600080fd5b506101a1600480360381019080803590602001908201803590602001908080601f016020809104026020016040519081016040528093929190818152602001838380828437820191505050505050919291929080359060200190929190803590602001908201803590602001908080601f01602080910402602001604051908101604052809392919081815260200183838082843782019150505050505091929192905050506105e7565b6040518082815260200191505060405180910390f35b3480156101c357600080fd5b506101cc6107a7565b6040518082815260200191505060405180910390f35b3480156101ee57600080fd5b506101f76107ad565b604051808273ffffffffffffffffffffffffffffffffffffffff1673ffffffffffffffffffffffffffffffffffffffff16815260200191505060405180910390f35b34801561024557600080fd5b5061024e61082c565b005b34801561025c57600080fd5b506102656108ea565b6040518082815260200191505060405180910390f35b34801561028757600080fd5b5061029061092a565b604051808215151515815260200191505060405180910390f35b3480156102b657600080fd5b506102bf61093d565b005b3480156102cd57600080fd5b506102d66109b1565b005b3480156102e457600080fd5b506102ed610a71565b604051808273ffffffffffffffffffffffffffffffffffffffff1673ffffffffffffffffffffffffffffffffffffffff16815260200191505060405180910390f35b61034d60048036038101908080359060200190929190505050610a97565b005b34801561035b57600080fd5b5061037a60048036038101908080359060200190929190505050610c59565b005b34801561038857600080fd5b506103a760048036038101908080359060200190929190505050610dc4565b005b3480156103b557600080fd5b506103be610f2f565b6040518082815260200191505060405180910390f35b3480156103e057600080fd5b506103ff60048036038101908080359060200190929190505050610fc5565b6040518088815260200180602001878152602001806020018681526020018573ffffffffffffffffffffffffffffffffffffffff1673ffffffffffffffffffffffffffffffffffffffff1681526020018473ffffffffffffffffffffffffffffffffffffffff1673ffffffffffffffffffffffffffffffffffffffff168152602001838103835289818151815260200191508051906020019080838360005b838110156104b957808201518184015260208101905061049e565b50505050905090810190601f1680156104e65780820380516001836020036101000a031916815260200191505b50838103825287818151815260200191508051906020019080838360005b8381101561051f578082015181840152602081019050610504565b50505050905090810190601f16801561054c5780820380516001836020036101000a031916815260200191505b50995050505050505050505060405180910390f35b34801561056d57600080fd5b506105a2600480360381019080803573ffffffffffffffffffffffffffffffffffffffff1690602001909291905050506113cd565b005b3480156105b057600080fd5b506105e5600480360381019080803573ffffffffffffffffffffffffffffffffffffffff169060200190929190505050611434565b005b600080600060149054906101000a900460ff1615151561060657600080fd5b6002549050610617818686866114e4565b6003600060025481526020019081526020016000206000820151816000015560208201518160010190805190602001906106529291906118d0565b506040820151816002015560608201518160030190805190602001906106799291906118d0565b5060808201518160040160006101000a81548160ff0219169083600381111561069e57fe5b021790555060a08201518160040160016101000a81548173ffffffffffffffffffffffffffffffffffffffff021916908373ffffffffffffffffffffffffffffffffffffffff16021790555060c08201518160050160006101000a81548173ffffffffffffffffffffffffffffffffffffffff021916908373ffffffffffffffffffffffffffffffffffffffff16021790555090505060016002600082825401925050819055507f6013dc4846dcd7f5bf0f6930da0cae9dfae29a23751d1cb0ca9cff1472e93c21816003600084815260200190815260200160002060020154604051808381526020018281526020019250505060405180910390a16002549150509392505050565b60025481565b60008060009054906101000a900473ffffffffffffffffffffffffffffffffffffffff1673ffffffffffffffffffffffffffffffffffffffff163373ffffffffffffffffffffffffffffffffffffffff1614151561080a57600080fd5b600060149054906101000a900460ff1615151561082657600080fd5b30905090565b6000809054906101000a900473ffffffffffffffffffffffffffffffffffffffff1673ffffffffffffffffffffffffffffffffffffffff163373ffffffffffffffffffffffffffffffffffffffff1614151561088757600080fd5b600060149054906101000a900460ff1615156108a257600080fd5b60008060146101000a81548160ff0219169083151502179055507f7805862f689e2f13df9f062ff482ad3ad112aca9e0847911ed832e158c525b3360405160405180910390a1565b60008060009054906101000a900473ffffffffffffffffffffffffffffffffffffffff1673ffffffffffffffffffffffffffffffffffffffff1631905090565b600060149054906101000a900460ff1681565b6000809054906101000a900473ffffffffffffffffffffffffffffffffffffffff1673ffffffffffffffffffffffffffffffffffffffff163373ffffffffffffffffffffffffffffffffffffffff1614151561099857600080fd5b3373ffffffffffffffffffffffffffffffffffffffff16ff5b6000809054906101000a900473ffffffffffffffffffffffffffffffffffffffff1673ffffffffffffffffffffffffffffffffffffffff163373ffffffffffffffffffffffffffffffffffffffff16141515610a0c57600080fd5b600060149054906101000a900460ff16151515610a2857600080fd5b6001600060146101000a81548160ff0219169083151502179055507f6985a02210a168e66602d3235cb6db0e70f92b3ba4d376a33c0f3d9434bff62560405160405180910390a1565b600160009054906101000a900473ffffffffffffffffffffffffffffffffffffffff1681565b6003600082815260200190815260200160002060020154803410151515610abd57600080fd5b81600080600060149054906101000a900460ff16151515610add57600080fd5b610af860036000878152602001908152602001600020611601565b7f8f3b8e2afb709a56cd086b1a4e162d1ed7d0f7a69d431f68fd014d08b87e50b28560036000888152602001908152602001600020600201546003600089815260200190815260200160002060050160009054906101000a900473ffffffffffffffffffffffffffffffffffffffff16604051808481526020018381526020018273ffffffffffffffffffffffffffffffffffffffff1673ffffffffffffffffffffffffffffffffffffffff168152602001935050505060405180910390a16003600084815260200190815260200160002060020154915081340390506003600084815260200190815260200160002060050160009054906101000a900473ffffffffffffffffffffffffffffffffffffffff1673ffffffffffffffffffffffffffffffffffffffff166108fc829081150290604051600060405180830381858888f19350505050158015610c51573d6000803e3d6000fd5b505050505050565b6003600082815260200190815260200160002060050160009054906101000a900473ffffffffffffffffffffffffffffffffffffffff168073ffffffffffffffffffffffffffffffffffffffff163373ffffffffffffffffffffffffffffffffffffffff16141515610cca57600080fd5b600060149054906101000a900460ff16151515610ce657600080fd5b610d01600360008481526020019081526020016000206116a5565b7f4c0bf521431a899566488333d84b16314e2a5ea82831456d50e513bd560fbf048260036000858152602001908152602001600020600201546003600086815260200190815260200160002060050160009054906101000a900473ffffffffffffffffffffffffffffffffffffffff16604051808481526020018381526020018273ffffffffffffffffffffffffffffffffffffffff1673ffffffffffffffffffffffffffffffffffffffff168152602001935050505060405180910390a15050565b6003600082815260200190815260200160002060040160019054906101000a900473ffffffffffffffffffffffffffffffffffffffff168073ffffffffffffffffffffffffffffffffffffffff163373ffffffffffffffffffffffffffffffffffffffff16141515610e3557600080fd5b600060149054906101000a900460ff16151515610e5157600080fd5b610e6c60036000848152602001908152602001600020611775565b7f9e18a3d6eef9af3364b440f142087b7a1e0f742a7e9e34c0bf7781ce2ca389868260036000858152602001908152602001600020600201546003600086815260200190815260200160002060040160019054906101000a900473ffffffffffffffffffffffffffffffffffffffff16604051808481526020018381526020018273ffffffffffffffffffffffffffffffffffffffff1673ffffffffffffffffffffffffffffffffffffffff168152602001935050505060405180910390a15050565b60008060009054906101000a900473ffffffffffffffffffffffffffffffffffffffff1673ffffffffffffffffffffffffffffffffffffffff163373ffffffffffffffffffffffffffffffffffffffff16141515610f8c57600080fd5b600060149054906101000a900460ff16151515610fa857600080fd5b3073ffffffffffffffffffffffffffffffffffffffff1631905090565b600060606000606060008060008060149054906101000a900460ff16151515610fed57600080fd5b60036000898152602001908152602001600020600001549650600360008981526020019081526020016000206001018054600181600116156101000203166002900480601f0160208091040260200160405190810160405280929190818152602001828054600181600116156101000203166002900480156110b05780601f10611085576101008083540402835291602001916110b0565b820191906000526020600020905b81548152906001019060200180831161109357829003601f168201915b5050505050955060036000898152602001908152602001600020600201549450600360008981526020019081526020016000206003018054600181600116156101000203166002900480601f01602080910402602001604051908101604052809291908181526020018280546001816001161561010002031660029004801561117a5780601f1061114f5761010080835404028352916020019161117a565b820191906000526020600020905b81548152906001019060200180831161115d57829003601f168201915b505050505093506003600089815260200190815260200160002060040160009054906101000a900460ff1660038111156111b057fe5b92506003600089815260200190815260200160002060040160019054906101000a900473ffffffffffffffffffffffffffffffffffffffff1691506003600089815260200190815260200160002060050160009054906101000a900473ffffffffffffffffffffffffffffffffffffffff1690507f86b47902a0017162430b6c389ddd1f4638d8ebbd0a4239f5285b71b73d256f9e878787878787876040518088815260200180602001878152602001806020018681526020018573ffffffffffffffffffffffffffffffffffffffff1673ffffffffffffffffffffffffffffffffffffffff1681526020018473ffffffffffffffffffffffffffffffffffffffff1673ffffffffffffffffffffffffffffffffffffffff168152602001838103835289818151815260200191508051906020019080838360005b838110156113065780820151818401526020810190506112eb565b50505050905090810190601f1680156113335780820380516001836020036101000a031916815260200191505b50838103825287818151815260200191508051906020019080838360005b8381101561136c578082015181840152602081019050611351565b50505050905090810190601f1680156113995780820380516001836020036101000a031916815260200191505b50995050505050505050505060405180910390a1868686868686869650965096509650965096509650919395979092949650565b6000809054906101000a900473ffffffffffffffffffffffffffffffffffffffff1673ffffffffffffffffffffffffffffffffffffffff163373ffffffffffffffffffffffffffffffffffffffff1614151561142857600080fd5b611431816117d6565b50565b6000809054906101000a900473ffffffffffffffffffffffffffffffffffffffff1673ffffffffffffffffffffffffffffffffffffffff163373ffffffffffffffffffffffffffffffffffffffff1614151561148f57600080fd5b600073ffffffffffffffffffffffffffffffffffffffff168173ffffffffffffffffffffffffffffffffffffffff16141515156114cb57600080fd5b8073ffffffffffffffffffffffffffffffffffffffff16ff5b6114ec611950565b60008311151561158a576040517f08c379a000000000000000000000000000000000000000000000000000000000815260040180806020018281038252602c8152602001807f5072696365206d75737420626520706f73697469766520616e6420646966666581526020017f72656e74207468616e203021000000000000000000000000000000000000000081525060400191505060405180910390fd5b60e060405190810160405280868152602001858152602001848152602001838152602001600060038111156115bb57fe5b81526020013373ffffffffffffffffffffffffffffffffffffffff168152602001600073ffffffffffffffffffffffffffffffffffffffff168152509050949350505050565b806000600381111561160f57fe5b8160040160009054906101000a900460ff16600381111561162c57fe5b14151561163857600080fd5b338260050160006101000a81548173ffffffffffffffffffffffffffffffffffffffff021916908373ffffffffffffffffffffffffffffffffffffffff16021790555060018260040160006101000a81548160ff0219169083600381111561169c57fe5b02179055505050565b80600260038111156116b357fe5b8160040160009054906101000a900460ff1660038111156116d057fe5b1415156116dc57600080fd5b60038260040160006101000a81548160ff021916908360038111156116fd57fe5b02179055508160040160019054906101000a900473ffffffffffffffffffffffffffffffffffffffff1673ffffffffffffffffffffffffffffffffffffffff166108fc83600201549081150290604051600060405180830381858888f19350505050158015611770573d6000803e3d6000fd5b505050565b806001600381111561178357fe5b8160040160009054906101000a900460ff1660038111156117a057fe5b1415156117ac57600080fd5b60028260040160006101000a81548160ff021916908360038111156117cd57fe5b02179055505050565b600073ffffffffffffffffffffffffffffffffffffffff168173ffffffffffffffffffffffffffffffffffffffff161415151561181257600080fd5b8073ffffffffffffffffffffffffffffffffffffffff166000809054906101000a900473ffffffffffffffffffffffffffffffffffffffff1673ffffffffffffffffffffffffffffffffffffffff167f8be0079c531659141344cd1fd0a4f28419497f9722a3daafe3b4186f6b6457e060405160405180910390a3806000806101000a81548173ffffffffffffffffffffffffffffffffffffffff021916908373ffffffffffffffffffffffffffffffffffffffff16021790555050565b828054600181600116156101000203166002900490600052602060002090601f016020900481019282601f1061191157805160ff191683800117855561193f565b8280016001018555821561193f579182015b8281111561193e578251825591602001919060010190611923565b5b50905061194c91906119c5565b5090565b60e060405190810160405280600081526020016060815260200160008152602001606081526020016000600381111561198557fe5b8152602001600073ffffffffffffffffffffffffffffffffffffffff168152602001600073ffffffffffffffffffffffffffffffffffffffff1681525090565b6119e791905b808211156119e35760008160009055506001016119cb565b5090565b905600a165627a7a72305820ec017482d02547339d1c97a274a3f1c20c67fcdfb49d00e9d09d30edcd4234ba0029",
  "source": "pragma solidity ^0.4.23;\n\nimport \"./common/Destructible.sol\";\nimport \"./common/Pausable.sol\";\nimport \"./libs/GoodsLib.sol\";\n\ncontract Marketplace is Destructible, Pausable {\n\n    using GoodsLib for GoodsLib.Goods;\n\n    // Let's make sure everyone knows who owns the TradeMyUsedStuff Website\n    address public owner;\n    // Add a variable called goodsCount to track the most recent goods\n    uint public goodsCount;\n    // Add a line that creates a public mapping that maps the id to an Goods.\n    mapping(uint => GoodsLib.Goods) goodsList;\n\n    // Create 4 events with the same name as each possible State\n    event LogForSale(uint id, uint price);\n    event LogSold(uint id, uint price, address buyer);\n    event LogShipped(uint id, uint price, address seller);\n    event LogReceived(uint id, uint price, address buyer);\n    event LogFetch(uint id, string name, uint price, string ipfspic, uint status, address seller, address buyer);\n\n    modifier verifyCaller(address _address) { \n        require (msg.sender == _address); \n        _;\n    }\n\n    modifier paidEnough(uint _price) { \n        require(msg.value >= _price); \n        _;\n    }\n    \n    modifier checkValue(uint _id) {\n        //refund after pay for goods\n        _;\n        uint _price = goodsList[_id].price;\n        uint amountToRefund = msg.value - _price;\n        goodsList[_id].buyer.transfer(amountToRefund);\n    }\n\n    // Constructor, can receive one or many variables here; only one allowed\n    constructor() public {\n        // msg provides details about the message that's sent to the contract\n        // msg.sender is contract caller (address of contract creator)\n        owner = msg.sender;\n        goodsCount = 0;\n    }\n\n    function addGoods(string _name, uint _price, string _ipfspic) \n        public\n        whenNotPaused\n        returns (uint)\n    {\n        uint _id = goodsCount;\n        goodsList[goodsCount] = GoodsLib.addGoods(_id, _name, _price, _ipfspic);\n        goodsCount += 1;\n        emit LogForSale(_id, goodsList[_id].price);\n        return goodsCount;\n    }\n\n    // buy a goods\n    function buyGoods(uint id) \n        public \n        payable\n        paidEnough(goodsList[id].price)\n        checkValue(id)\n        whenNotPaused\n    {\n        goodsList[id].buyGoods();\n        emit LogSold(id, goodsList[id].price, goodsList[id].buyer);\n    }\n\n    // ship a goods\n    function shipGoods(uint id) \n        public\n        verifyCaller(goodsList[id].seller)\n        whenNotPaused\n    {\n        goodsList[id].shipGoods();\n        emit LogShipped(id, goodsList[id].price, goodsList[id].seller);\n    }\n\n    // received a goods\n    function receiveGoods(uint id)\n        public\n        verifyCaller(goodsList[id].buyer)\n        whenNotPaused\n    {\n        goodsList[id].receiveGoods();\n        emit LogReceived(id, goodsList[id].price, goodsList[id].buyer);\n    }\n\n    function fetchGoods(uint _id) \n        public \n        view\n        whenNotPaused\n        returns (uint id, string name, uint price, string ipfspic, uint state, address seller, address buyer) \n    {\n        id = goodsList[_id].id; \n        name = goodsList[_id].name;\n        price = goodsList[_id].price;\n        ipfspic = goodsList[_id].ipfspic;\n        state = uint(goodsList[_id].status);\n        seller = goodsList[_id].seller;\n        buyer = goodsList[_id].buyer;\n        \n        emit LogFetch(id, name, price, ipfspic, state, seller, buyer);\n        return (id, name, price, ipfspic, state, seller, buyer);\n    }\n\n    function checkBalance() \n        public \n        view \n        onlyOwner\n        whenNotPaused\n        returns(uint) \n    {\n        return address(this).balance;\n    }\n\n    function getAddress() \n        public \n        view\n        onlyOwner\n        whenNotPaused\n        returns(address) \n    {\n        return address(this);\n    }\n}",
  "sourcePath": "/Users/swang5/Projects/Blockchain/2018-Developer-Program-Final-Project/contracts/Marketplace.sol",
  "compiler": {
    "name": "solc",
    "version": "0.4.24+commit.e67f0147.Emscripten.clang"
  },
  "schemaVersion": "2.0.1",
  "updatedAt": "2018-09-02T11:51:37.655Z"
}